{
  "contractName": "ChainList",
  "abi": [
    {
      "anonymous": false,
      "inputs": [
        {
          "indexed": true,
          "internalType": "uint256",
          "name": "_id",
          "type": "uint256"
        },
        {
          "indexed": true,
          "internalType": "address",
          "name": "_seller",
          "type": "address"
        },
        {
          "indexed": true,
          "internalType": "address",
          "name": "_buyer",
          "type": "address"
        },
        {
          "indexed": false,
          "internalType": "string",
          "name": "_name",
          "type": "string"
        },
        {
          "indexed": false,
          "internalType": "uint256",
          "name": "_price",
          "type": "uint256"
        }
      ],
      "name": "LogBuyArticle",
      "type": "event"
    },
    {
      "anonymous": false,
      "inputs": [
        {
          "indexed": true,
          "internalType": "uint256",
          "name": "_id",
          "type": "uint256"
        },
        {
          "indexed": true,
          "internalType": "address",
          "name": "_seller",
          "type": "address"
        },
        {
          "indexed": false,
          "internalType": "string",
          "name": "_name",
          "type": "string"
        },
        {
          "indexed": false,
          "internalType": "uint256",
          "name": "_price",
          "type": "uint256"
        }
      ],
      "name": "LogSellArticle",
      "type": "event"
    },
    {
      "constant": true,
      "inputs": [
        {
          "internalType": "uint256",
          "name": "",
          "type": "uint256"
        }
      ],
      "name": "articles",
      "outputs": [
        {
          "internalType": "uint256",
          "name": "id",
          "type": "uint256"
        },
        {
          "internalType": "address payable",
          "name": "seller",
          "type": "address"
        },
        {
          "internalType": "address",
          "name": "buyer",
          "type": "address"
        },
        {
          "internalType": "string",
          "name": "name",
          "type": "string"
        },
        {
          "internalType": "string",
          "name": "description",
          "type": "string"
        },
        {
          "internalType": "uint256",
          "name": "price",
          "type": "uint256"
        }
      ],
      "payable": false,
      "stateMutability": "view",
      "type": "function"
    },
    {
      "constant": false,
      "inputs": [],
      "name": "kill",
      "outputs": [],
      "payable": false,
      "stateMutability": "nonpayable",
      "type": "function"
    },
    {
      "constant": false,
      "inputs": [
        {
          "internalType": "string",
          "name": "_name",
          "type": "string"
        },
        {
          "internalType": "string",
          "name": "_description",
          "type": "string"
        },
        {
          "internalType": "uint256",
          "name": "_price",
          "type": "uint256"
        }
      ],
      "name": "sellArticle",
      "outputs": [],
      "payable": false,
      "stateMutability": "nonpayable",
      "type": "function"
    },
    {
      "constant": true,
      "inputs": [],
      "name": "getNumberOfArticles",
      "outputs": [
        {
          "internalType": "uint256",
          "name": "",
          "type": "uint256"
        }
      ],
      "payable": false,
      "stateMutability": "view",
      "type": "function"
    },
    {
      "constant": true,
      "inputs": [],
      "name": "getArticlesForSale",
      "outputs": [
        {
          "internalType": "uint256[]",
          "name": "",
          "type": "uint256[]"
        }
      ],
      "payable": false,
      "stateMutability": "view",
      "type": "function"
    },
    {
      "constant": false,
      "inputs": [
        {
          "internalType": "uint256",
          "name": "_id",
          "type": "uint256"
        }
      ],
      "name": "buyArticle",
      "outputs": [],
      "payable": true,
      "stateMutability": "payable",
      "type": "function"
    }
  ],
  "bytecode": "0x6080604052600080546001600160a01b03191633179055610c2b806100256000396000f3fe6080604052600436106100555760003560e01c80631cc4baa81461005a57806341c0e1b5146100795780637f6be3da1461008e57806389da85d3146100f3578063d26095151461011a578063edcfafe614610256575b600080fd5b6100776004803603602081101561007057600080fd5b503561039e565b005b34801561008557600080fd5b5061007761065b565b34801561009a57600080fd5b506100a36106b2565b60408051602080825283518183015283519192839290830191858101910280838360005b838110156100df5781810151838201526020016100c7565b505050509050019250505060405180910390f35b3480156100ff57600080fd5b506101086107bf565b60408051918252519081900360200190f35b34801561012657600080fd5b506100776004803603606081101561013d57600080fd5b81019060208101813564010000000081111561015857600080fd5b82018360208201111561016a57600080fd5b8035906020019184600183028401116401000000008311171561018c57600080fd5b91908080601f01602080910402602001604051908101604052809392919081815260200183838082843760009201919091525092959493602081019350359150506401000000008111156101df57600080fd5b8201836020820111156101f157600080fd5b8035906020019184600183028401116401000000008311171561021357600080fd5b91908080601f01602080910402602001604051908101604052809392919081815260200183838082843760009201919091525092955050913592506107c5915050565b34801561026257600080fd5b506102806004803603602081101561027957600080fd5b503561093d565b60405180878152602001866001600160a01b03166001600160a01b03168152602001856001600160a01b03166001600160a01b031681526020018060200180602001848152602001838103835286818151815260200191508051906020019080838360005b838110156102fd5781810151838201526020016102e5565b50505050905090810190601f16801561032a5780820380516001836020036101000a031916815260200191505b50838103825285518152855160209182019187019080838360005b8381101561035d578181015183820152602001610345565b50505050905090810190601f16801561038a5780820380516001836020036101000a031916815260200191505b509850505050505050505060405180910390f35b6000600254116103df5760405162461bcd60e51b8152600401808060200182810382526024815260200180610bb06024913960400191505060405180910390fd5b6000811180156103f157506002548111155b61042c5760405162461bcd60e51b8152600401808060200182810382526023815260200180610bd46023913960400191505060405180910390fd5b600081815260016020526040902060028101546001600160a01b03161561049a576040805162461bcd60e51b815260206004820152601860248201527f41727469636c652077617320616c726561647920736f6c640000000000000000604482015290519081900360640190fd5b60018101546001600160a01b03163314156104e65760405162461bcd60e51b8152600401808060200182810382526021815260200180610b596021913960400191505060405180910390fd5b806005015434146105285760405162461bcd60e51b815260040180806020018281038252602e815260200180610b2b602e913960400191505060405180910390fd5b6002810180546001600160a01b0319163317905560018101546040516001600160a01b0391909116903480156108fc02916000818181858888f19350505050158015610578573d6000803e3d6000fd5b5060028082015460018084015460058501546040805160208101839052818152600388018054600019968116156101000296909601909516969096049086018190526001600160a01b0394851695929094169387937f5d28bc06e6f0c45405abfe77bd77236c767f9bd9d044ae2d954a415a2b4823e09390929181906060820190859080156106485780601f1061061d57610100808354040283529160200191610648565b820191906000526020600020905b81548152906001019060200180831161062b57829003601f168201915b5050935050505060405180910390a45050565b6000546001600160a01b031633146106a45760405162461bcd60e51b8152600401808060200182810382526036815260200180610b7a6036913960400191505060405180910390fd5b6000546001600160a01b0316ff5b6060806002546040519080825280602002602001820160405280156106e1578160200160208202803883390190505b509050600060015b6002548111610748576000818152600160205260409020600201546001600160a01b031661074057600081815260016020526040902054835184908490811061072e57fe5b60209081029190910101526001909101905b6001016106e9565b50606081604051908082528060200260200182016040528015610775578160200160208202803883390190505b50905060005b828110156107b65783818151811061078f57fe5b60200260200101518282815181106107a357fe5b602090810291909101015260010161077b565b50925050505b90565b60025490565b6002805460019081018083556040805160c0810182528281523360208083019182526000838501818152606085018c8152608086018c905260a086018b905296825287835294902083518155915195820180546001600160a01b039788166001600160a01b03199182161790915593519682018054979096169690931695909517909355905180519293926108609260038501920190610a92565b506080820151805161087c916004840191602090910190610a92565b5060a08201518160050155905050336001600160a01b03166002547fe2ebb0c522a8b90a93f45a5dfd3c0e0516b81519fdf199efe51c474642fe8cec85846040518080602001838152602001828103825284818151815260200191508051906020019080838360005b838110156108fd5781810151838201526020016108e5565b50505050905090810190601f16801561092a5780820380516001836020036101000a031916815260200191505b50935050505060405180910390a3505050565b60016020818152600092835260409283902080548184015460028084015460038501805489516101009982161599909902600019011692909204601f810187900487028801870190985287875292966001600160a01b03928316969290931694919290918301828280156109f25780601f106109c7576101008083540402835291602001916109f2565b820191906000526020600020905b8154815290600101906020018083116109d557829003601f168201915b5050505060048301805460408051602060026001851615610100026000190190941693909304601f8101849004840282018401909252818152949594935090830182828015610a825780601f10610a5757610100808354040283529160200191610a82565b820191906000526020600020905b815481529060010190602001808311610a6557829003601f168201915b5050505050908060050154905086565b828054600181600116156101000203166002900490600052602060002090601f016020900481019282601f10610ad357805160ff1916838001178555610b00565b82800160010185558215610b00579182015b82811115610b00578251825591602001919060010190610ae5565b50610b0c929150610b10565b5090565b6107bc91905b80821115610b0c5760008155600101610b1656fe56616c75652070726f766964656420646f6573206e6f74206d61746368207072696365206f662061727469636c6553656c6c65722063616e6e6f742062757920686973206f776e2061727469636c65546869732066756e6374696f6e2063616e206f6e6c792062652063616c6c65642062792074686520636f6e7472616374206f776e657241727469636c652073686f756c6420626520617661696c61626c6520666f722073616c6541727469636c652077697468207468697320696420646f6573206e6f74206578697374a265627a7a72315820da25ef27ebcceaa1d4db41228c36d6af94fd18de5e31317a0824c4eb48ca654b64736f6c63430005100032",
  "source": "pragma solidity >0.4.99 < 0.6.0;\n\nimport \"./Ownable.sol\";\n\ncontract ChainList is Ownable {\n    // custom types\n    struct Article {\n        uint id;\n        address payable seller;\n        address buyer;\n        string name;\n        string description;\n        uint256 price;\n    }\n\n    // state variables\n    mapping (uint => Article) public articles;\n    uint articleCounter;\n\n    // events\n    event LogSellArticle(\n        uint indexed _id,\n        address indexed _seller,\n        string _name,\n        uint256 _price\n    );\n    event LogBuyArticle(\n        uint indexed _id,\n        address indexed _seller,\n        address indexed _buyer,\n        string _name,\n        uint256 _price\n    );\n\n    // deactivate the contract\n    function kill() public onlyOwner {\n        selfdestruct(owner);\n    }\n\n    // sell an article\n    function sellArticle(string memory _name, string memory _description, uint256 _price) public {\n        // a new article\n        articleCounter++;\n\n        // store this article\n        articles[articleCounter] = Article(\n            articleCounter,\n            msg.sender,\n            address(0),\n            _name,\n            _description,\n            _price\n        );\n\n        emit LogSellArticle(articleCounter, msg.sender, _name, _price);\n    }\n\n    // fetch the number of articles in the contract\n    function getNumberOfArticles() public view returns (uint) {\n        return articleCounter;\n    }\n\n    // fetch and return all article IDs for articles still for sale\n    function getArticlesForSale() public view returns (uint[] memory) {\n        // prepare output array\n        uint[] memory articleIds = new uint[](articleCounter);\n\n        uint numberOfArticlesForSale = 0;\n        // iterate over articles\n        for (uint i = 1; i <= articleCounter; i++) {\n            // keep the ID if the article is still for sale\n            if (articles[i].buyer == address(0)) {\n                articleIds[numberOfArticlesForSale] = articles[i].id;\n                numberOfArticlesForSale++;\n            }\n        }\n\n        // copy the articleIds array into a smaller forSale array\n        uint[] memory forSale = new uint[](numberOfArticlesForSale);\n        for (uint j = 0; j < numberOfArticlesForSale; j++) {\n            forSale[j] = articleIds[j];\n        }\n\n        return forSale;\n    }\n\n    function buyArticle(uint _id) public payable {\n        // we check whether there is an article for sale\n        require(articleCounter > 0, \"Article should be available for sale\");\n        // we check that the article exists\n        require(_id > 0 && _id <= articleCounter, \"Article with this id does not exist\");\n\n        // we need to retrieve the article from the mapping\n        Article storage article = articles[_id];\n\n        // check that the article has not been sold yet\n        require(article.buyer == address(0), \"Article was already sold\");\n        // we don't allow the seller to buy his own article\n        require(msg.sender != article.seller, \"Seller cannot buy his own article\");\n        // check that the value sent corresponds to the price of the article\n        require(msg.value == article.price, \"Value provided does not match price of article\");\n\n        // keep buyer's information\n        article.buyer = msg.sender;\n        // the buyer can pay the seller\n        article.seller.transfer(msg.value);\n\n        // trigger the event\n        emit LogBuyArticle(_id, article.seller, article.buyer, article.name, article.price);\n    }\n}",
  "sourcePath": "/Users/subhre/Documents/udemy/ethereum_solidity/chainskills/training/chainlist/contracts/ChainList.sol",
  "compiler": {
    "name": "solc",
    "version": "0.5.16+commit.9c3226ce.Emscripten.clang"
  },
  "schemaVersion": "3.0.23",
  "updatedAt": "2020-03-15T09:01:17.823Z",
  "networkType": "ethereum",
  "devdoc": {
    "methods": {}
  },
  "userdoc": {
    "methods": {}
  }
}